{
  "_format": "hh-sol-artifact-1",
  "contractName": "Token",
  "sourceName": "contracts/Token.sol",
  "abi": [
    {
      "inputs": [
        {
          "internalType": "uint256",
          "name": "totalSupply",
          "type": "uint256"
        }
      ],
      "stateMutability": "nonpayable",
      "type": "constructor"
    },
    {
      "anonymous": false,
      "inputs": [
        {
          "indexed": true,
          "internalType": "address",
          "name": "_owner",
          "type": "address"
        },
        {
          "indexed": true,
          "internalType": "address",
          "name": "_spender",
          "type": "address"
        },
        {
          "indexed": false,
          "internalType": "uint256",
          "name": "_value",
          "type": "uint256"
        }
      ],
      "name": "Approval",
      "type": "event"
    },
    {
      "anonymous": false,
      "inputs": [
        {
          "indexed": true,
          "internalType": "address",
          "name": "_from",
          "type": "address"
        },
        {
          "indexed": true,
          "internalType": "address",
          "name": "_to",
          "type": "address"
        },
        {
          "indexed": false,
          "internalType": "uint256",
          "name": "_value",
          "type": "uint256"
        }
      ],
      "name": "Transfer",
      "type": "event"
    },
    {
      "inputs": [
        {
          "internalType": "address",
          "name": "",
          "type": "address"
        }
      ],
      "name": "_balanceOf",
      "outputs": [
        {
          "internalType": "uint256",
          "name": "",
          "type": "uint256"
        }
      ],
      "stateMutability": "view",
      "type": "function"
    },
    {
      "inputs": [],
      "name": "_name",
      "outputs": [
        {
          "internalType": "string",
          "name": "",
          "type": "string"
        }
      ],
      "stateMutability": "view",
      "type": "function"
    },
    {
      "inputs": [],
      "name": "_owner",
      "outputs": [
        {
          "internalType": "address",
          "name": "",
          "type": "address"
        }
      ],
      "stateMutability": "view",
      "type": "function"
    },
    {
      "inputs": [],
      "name": "_symbol",
      "outputs": [
        {
          "internalType": "string",
          "name": "",
          "type": "string"
        }
      ],
      "stateMutability": "view",
      "type": "function"
    },
    {
      "inputs": [],
      "name": "_totalSupply",
      "outputs": [
        {
          "internalType": "uint256",
          "name": "",
          "type": "uint256"
        }
      ],
      "stateMutability": "view",
      "type": "function"
    },
    {
      "inputs": [
        {
          "internalType": "address",
          "name": "_owner",
          "type": "address"
        },
        {
          "internalType": "address",
          "name": "_spender",
          "type": "address"
        }
      ],
      "name": "allowance",
      "outputs": [
        {
          "internalType": "uint256",
          "name": "remaining",
          "type": "uint256"
        }
      ],
      "stateMutability": "view",
      "type": "function"
    },
    {
      "inputs": [
        {
          "internalType": "address",
          "name": "_spender",
          "type": "address"
        },
        {
          "internalType": "uint256",
          "name": "_value",
          "type": "uint256"
        }
      ],
      "name": "approve",
      "outputs": [
        {
          "internalType": "bool",
          "name": "success",
          "type": "bool"
        }
      ],
      "stateMutability": "nonpayable",
      "type": "function"
    },
    {
      "inputs": [
        {
          "internalType": "address",
          "name": "_owner",
          "type": "address"
        }
      ],
      "name": "balanceOf",
      "outputs": [
        {
          "internalType": "uint256",
          "name": "balance",
          "type": "uint256"
        }
      ],
      "stateMutability": "view",
      "type": "function"
    },
    {
      "inputs": [],
      "name": "decimals",
      "outputs": [
        {
          "internalType": "uint8",
          "name": "",
          "type": "uint8"
        }
      ],
      "stateMutability": "view",
      "type": "function"
    },
    {
      "inputs": [],
      "name": "name",
      "outputs": [
        {
          "internalType": "string",
          "name": "",
          "type": "string"
        }
      ],
      "stateMutability": "view",
      "type": "function"
    },
    {
      "inputs": [],
      "name": "symbol",
      "outputs": [
        {
          "internalType": "string",
          "name": "",
          "type": "string"
        }
      ],
      "stateMutability": "view",
      "type": "function"
    },
    {
      "inputs": [],
      "name": "totalSupply",
      "outputs": [
        {
          "internalType": "uint256",
          "name": "",
          "type": "uint256"
        }
      ],
      "stateMutability": "view",
      "type": "function"
    },
    {
      "inputs": [
        {
          "internalType": "address",
          "name": "_to",
          "type": "address"
        },
        {
          "internalType": "uint256",
          "name": "_value",
          "type": "uint256"
        }
      ],
      "name": "transfer",
      "outputs": [
        {
          "internalType": "bool",
          "name": "success",
          "type": "bool"
        }
      ],
      "stateMutability": "nonpayable",
      "type": "function"
    },
    {
      "inputs": [
        {
          "internalType": "address",
          "name": "_from",
          "type": "address"
        },
        {
          "internalType": "address",
          "name": "_to",
          "type": "address"
        },
        {
          "internalType": "uint256",
          "name": "_value",
          "type": "uint256"
        }
      ],
      "name": "transferFrom",
      "outputs": [
        {
          "internalType": "bool",
          "name": "success",
          "type": "bool"
        }
      ],
      "stateMutability": "nonpayable",
      "type": "function"
    }
  ],
  "bytecode": "0x60806040523480156200001157600080fd5b50604051620012913803806200129183398181016040528101906200003791906200022c565b336000806101000a81548173ffffffffffffffffffffffffffffffffffffffff021916908373ffffffffffffffffffffffffffffffffffffffff1602179055506040518060400160405280600981526020017f373035313130393030000000000000000000000000000000000000000000000081525060019080519060200190620000c492919062000165565b506040518060400160405280600581526020017f4353313838000000000000000000000000000000000000000000000000000000815250600290805190602001906200011292919062000165565b508060038190555080600460003373ffffffffffffffffffffffffffffffffffffffff1673ffffffffffffffffffffffffffffffffffffffff1681526020019081526020016000208190555050620002e1565b828054620001739062000262565b90600052602060002090601f016020900481019282620001975760008555620001e3565b82601f10620001b257805160ff1916838001178555620001e3565b82800160010185558215620001e3579182015b82811115620001e2578251825591602001919060010190620001c5565b5b509050620001f29190620001f6565b5090565b5b8082111562000211576000816000905550600101620001f7565b5090565b6000815190506200022681620002c7565b92915050565b6000602082840312156200023f57600080fd5b60006200024f8482850162000215565b91505092915050565b6000819050919050565b600060028204905060018216806200027b57607f821691505b6020821081141562000292576200029162000298565b5b50919050565b7f4e487b7100000000000000000000000000000000000000000000000000000000600052602260045260246000fd5b620002d28162000258565b8114620002de57600080fd5b50565b610fa080620002f16000396000f3fe608060405234801561001057600080fd5b50600436106100ea5760003560e01c806395d89b411161008c578063b2bdfa7b11610066578063b2bdfa7b14610263578063cca3e83214610281578063d28d8852146102b1578063dd62ed3e146102cf576100ea565b806395d89b41146101f7578063a9059cbb14610215578063b09f126614610245576100ea565b806323b872dd116100c857806323b872dd1461015b578063313ce5671461018b5780633eaaf86b146101a957806370a08231146101c7576100ea565b806306fdde03146100ef578063095ea7b31461010d57806318160ddd1461013d575b600080fd5b6100f76102ff565b6040516101049190610cf5565b60405180910390f35b61012760048036038101906101229190610ba8565b610391565b6040516101349190610cda565b60405180910390f35b61014561052f565b6040516101529190610d37565b60405180910390f35b61017560048036038101906101709190610b59565b610539565b6040516101829190610cda565b60405180910390f35b6101936107ec565b6040516101a09190610d52565b60405180910390f35b6101b16107f5565b6040516101be9190610d37565b60405180910390f35b6101e160048036038101906101dc9190610af4565b6107fb565b6040516101ee9190610d37565b60405180910390f35b6101ff610844565b60405161020c9190610cf5565b60405180910390f35b61022f600480360381019061022a9190610ba8565b6108d6565b60405161023c9190610cda565b60405180910390f35b61024d6108eb565b60405161025a9190610cf5565b60405180910390f35b61026b610979565b6040516102789190610cbf565b60405180910390f35b61029b60048036038101906102969190610af4565b61099d565b6040516102a89190610d37565b60405180910390f35b6102b96109b5565b6040516102c69190610cf5565b60405180910390f35b6102e960048036038101906102e49190610b1d565b610a43565b6040516102f69190610d37565b60405180910390f35b60606001805461030e90610e9b565b80601f016020809104026020016040519081016040528092919081815260200182805461033a90610e9b565b80156103875780601f1061035c57610100808354040283529160200191610387565b820191906000526020600020905b81548152906001019060200180831161036a57829003601f168201915b5050505050905090565b60008073ffffffffffffffffffffffffffffffffffffffff168373ffffffffffffffffffffffffffffffffffffffff161415610402576040517f08c379a00000000000000000000000000000000000000000000000000000000081526004016103f990610d17565b60405180910390fd5b81600560008060009054906101000a900473ffffffffffffffffffffffffffffffffffffffff1673ffffffffffffffffffffffffffffffffffffffff1673ffffffffffffffffffffffffffffffffffffffff16815260200190815260200160002060008573ffffffffffffffffffffffffffffffffffffffff1673ffffffffffffffffffffffffffffffffffffffff168152602001908152602001600020819055508273ffffffffffffffffffffffffffffffffffffffff1660008054906101000a900473ffffffffffffffffffffffffffffffffffffffff1673ffffffffffffffffffffffffffffffffffffffff167f8c5be1e5ebec7d5bd14f71427d1e84f3dd0314c0f7b2291e5b200ac8c7c3b925846040516105219190610d37565b60405180910390a392915050565b6000600354905090565b600080600560008673ffffffffffffffffffffffffffffffffffffffff1673ffffffffffffffffffffffffffffffffffffffff16815260200190815260200160002060003373ffffffffffffffffffffffffffffffffffffffff1673ffffffffffffffffffffffffffffffffffffffff16815260200190815260200160002054905082600460008773ffffffffffffffffffffffffffffffffffffffff1673ffffffffffffffffffffffffffffffffffffffff168152602001908152602001600020541015801561060a5750828110155b61061357600080fd5b82600460008673ffffffffffffffffffffffffffffffffffffffff1673ffffffffffffffffffffffffffffffffffffffff16815260200190815260200160002060008282546106629190610d89565b9250508190555082600460008773ffffffffffffffffffffffffffffffffffffffff1673ffffffffffffffffffffffffffffffffffffffff16815260200190815260200160002060008282546106b89190610ddf565b925050819055507fffffffffffffffffffffffffffffffffffffffffffffffffffffffffffffffff81101561077b5782600560008773ffffffffffffffffffffffffffffffffffffffff1673ffffffffffffffffffffffffffffffffffffffff16815260200190815260200160002060003373ffffffffffffffffffffffffffffffffffffffff1673ffffffffffffffffffffffffffffffffffffffff16815260200190815260200160002060008282546107739190610ddf565b925050819055505b8373ffffffffffffffffffffffffffffffffffffffff168573ffffffffffffffffffffffffffffffffffffffff167fddf252ad1be2c89b69c2b068fc378daa952ba7f163c4a11628f55a4df523b3ef856040516107d89190610d37565b60405180910390a360019150509392505050565b60006012905090565b60035481565b6000600460008373ffffffffffffffffffffffffffffffffffffffff1673ffffffffffffffffffffffffffffffffffffffff168152602001908152602001600020549050919050565b60606002805461085390610e9b565b80601f016020809104026020016040519081016040528092919081815260200182805461087f90610e9b565b80156108cc5780601f106108a1576101008083540402835291602001916108cc565b820191906000526020600020905b8154815290600101906020018083116108af57829003601f168201915b5050505050905090565b60006108e3338484610539565b905092915050565b600280546108f890610e9b565b80601f016020809104026020016040519081016040528092919081815260200182805461092490610e9b565b80156109715780601f1061094657610100808354040283529160200191610971565b820191906000526020600020905b81548152906001019060200180831161095457829003601f168201915b505050505081565b60008054906101000a900473ffffffffffffffffffffffffffffffffffffffff1681565b60046020528060005260406000206000915090505481565b600180546109c290610e9b565b80601f01602080910402602001604051908101604052809291908181526020018280546109ee90610e9b565b8015610a3b5780601f10610a1057610100808354040283529160200191610a3b565b820191906000526020600020905b815481529060010190602001808311610a1e57829003601f168201915b505050505081565b6000600560008473ffffffffffffffffffffffffffffffffffffffff1673ffffffffffffffffffffffffffffffffffffffff16815260200190815260200160002060008373ffffffffffffffffffffffffffffffffffffffff1673ffffffffffffffffffffffffffffffffffffffff16815260200190815260200160002054905092915050565b600081359050610ad981610f3c565b92915050565b600081359050610aee81610f53565b92915050565b600060208284031215610b0657600080fd5b6000610b1484828501610aca565b91505092915050565b60008060408385031215610b3057600080fd5b6000610b3e85828601610aca565b9250506020610b4f85828601610aca565b9150509250929050565b600080600060608486031215610b6e57600080fd5b6000610b7c86828701610aca565b9350506020610b8d86828701610aca565b9250506040610b9e86828701610adf565b9150509250925092565b60008060408385031215610bbb57600080fd5b6000610bc985828601610aca565b9250506020610bda85828601610adf565b9150509250929050565b610bed81610e13565b82525050565b610bfc81610e25565b82525050565b6000610c0d82610d6d565b610c178185610d78565b9350610c27818560208601610e68565b610c3081610f2b565b840191505092915050565b6000610c48602283610d78565b91507f45524332303a20617070726f766520746f20746865207a65726f20616464726560008301527f73730000000000000000000000000000000000000000000000000000000000006020830152604082019050919050565b610caa81610e51565b82525050565b610cb981610e5b565b82525050565b6000602082019050610cd46000830184610be4565b92915050565b6000602082019050610cef6000830184610bf3565b92915050565b60006020820190508181036000830152610d0f8184610c02565b905092915050565b60006020820190508181036000830152610d3081610c3b565b9050919050565b6000602082019050610d4c6000830184610ca1565b92915050565b6000602082019050610d676000830184610cb0565b92915050565b600081519050919050565b600082825260208201905092915050565b6000610d9482610e51565b9150610d9f83610e51565b9250827fffffffffffffffffffffffffffffffffffffffffffffffffffffffffffffffff03821115610dd457610dd3610ecd565b5b828201905092915050565b6000610dea82610e51565b9150610df583610e51565b925082821015610e0857610e07610ecd565b5b828203905092915050565b6000610e1e82610e31565b9050919050565b60008115159050919050565b600073ffffffffffffffffffffffffffffffffffffffff82169050919050565b6000819050919050565b600060ff82169050919050565b60005b83811015610e86578082015181840152602081019050610e6b565b83811115610e95576000848401525b50505050565b60006002820490506001821680610eb357607f821691505b60208210811415610ec757610ec6610efc565b5b50919050565b7f4e487b7100000000000000000000000000000000000000000000000000000000600052601160045260246000fd5b7f4e487b7100000000000000000000000000000000000000000000000000000000600052602260045260246000fd5b6000601f19601f8301169050919050565b610f4581610e13565b8114610f5057600080fd5b50565b610f5c81610e51565b8114610f6757600080fd5b5056fea2646970667358221220fcd73dd88523eaec6a53207633d01b2a6adacb05bf93c4f31ef29f5388dc16ff64736f6c63430008000033",
  "linkReferences": {},
  "deployedLinkReferences": {}
}